:020000040800F2
:1000000010040020D5000008170800081508000893
:1000100000000000000000000000000000000000E0
:100020000000000000000000000000005F08000861
:1000300000000000000000005D08000861080008E2
:10004000E7000008E7000008E7000008E7000008F4
:10005000E700000841010008E7000008E700000889
:10006000E7000008E7000008E7000008E7000008D4
:10007000E7000008E7000008E7000008E7000008C4
:10008000E7000008E7000008E7000008E7000008B4
:10009000E7000008E7000008E7000008E7000008A4
:1000A000E7000008E7000008E7000008E700000894
:1000B000E7000008E7000008E7000008E700000884
:1000C0000348854600F02AF800480047AD090008BB
:1000D000100400200448804704480047FEE7FEE77C
:1000E000FEE7FEE7FEE7FEE731090008C100000871
:1000F00030B50B46014600202022012409E00D46C0
:10010000D5409D4205D31D469540491B2546954047
:1001100040191546521E002DF1DC30BD064C01255C
:10012000064E05E0E36807CC2B430C3C984710349F
:10013000B442F7D3FFF7C8FF840A0008A40A0008F6
:1001400005490120486105484178002902D0002175
:10015000417070470121FBE70004014000000020CE
:10016000014800687047000008000020024801684C
:10017000491C0160704700000800002010B50648C7
:100180000168102211430160002000F007F800F020
:1001900017F8002010BD00000020024010B50446F2
:1001A00000F0D8F87D21C900FFF7A2FF00F016FB90
:1001B00000222146501E00F01FF8002010BD000054
:1001C00008B50C48816901221143816180691040A2
:1001D000002200901146501F00F00EF80022114638
:1001E000901E00F009F800221146501E00F004F89D
:1001F00008BD00000010024010B500F00DFB10BD5E
:10020000F8B505464E480E460068C007C00FB0421C
:100210000AD24B480168490849003143016000682F
:10022000C007C00FB04270D12878464C800705D572
:100230006068F0218843A968084360602878C00797
:1002400053D06868012817D0022818D0032819D085
:1002500021688907002958DA616889088900014303
:100260006160FFF77DFF69680746012913D0022905
:100270001DD0032927D034E021688903EAE72168EB
:100280008901E7E7616BC903E4E7FFF769FFC11B79
:100290002D48814223D860680007800F0128F4D1DF
:1002A00023E0FFF75DFFC11B2748814217D8606834
:1002B0000007800F0228F4D117E0FFF751FFC11BA0
:1002C000214881420BD860680007800F0328F4D1D1
:1002D0000BE0FFF745FFC11B1B48814201D90320FA
:1002E000F8BD60680007800FF3D115480168C907A1
:1002F000C90FB1420BD90168490849003143016077
:100300000068C007C00FB04201D00120F8BD2878B6
:10031000400706D56068072109028843E968084359
:10032000606000F01DF86168084A0906090F515C19
:10033000C840074908600020FFF730FF0020F8BDE3
:10034000002002400010024088130000740A0008D8
:1003500004000020014800687047000004000020ED
:1003600030B516A30FCB89B06C460FC417A30FCBC3
:100370000FC41A494A680C20144604401848042C3B
:1003800005D0184B082C04D00C2C00D1184609B00D
:1003900030BD9402240F6D462C5DC96A04AD090777
:1003A000090FD203695C920F022A02D0032A00D1FE
:1003B0001846FFF79DFE6043E9E7000002030405CD
:1003C000060708090A0B0C0D0E0F1010010203049A
:1003D00005060708090A0B0C0D0E0F10001002404D
:1003E00000127A00006CDC02FEB504460078F04E84
:1003F000F04DC00748D068680007800F01281FD063
:1004000068680007800F022804D16868C003800F65
:10041000022815D06168012919D001208004002923
:1004200001D0052917D02968B14329602968814383
:100430002960606800281BD0FFF792FE074613E092
:100440002868800320D56068002876D01CE02868E2
:1004500030432860EDE7296801432960F7E7FFF79B
:100460007FFEC01B642869D828688003F7D50BE09D
:10047000FFF776FE074604E0FFF772FEC01B642814
:10048000F1D828688003F7D4207880073ED56868C3
:100490000007800F14D068680007800F022804D17D
:1004A0006868C003800F01280AD0E0680028286827
:1004B0001DD0012108432860FFF752FE07460BE0DC
:1004C000286880070BD5E068012836D107E0FFF7E0
:1004D00047FEC01B0228C6D828688007F7D52868C1
:1004E000F82188432169C900084328600EE04008CC
:1004F00040002860FFF734FE074604E0FFF730FEB7
:10050000C01B0228AFD828688007F7D420780007DE
:1005100024D5E0690028686A11D001210843686287
:10052000FFF71EFE074604E0FFF71AFEC01B022875
:1005300099D8686A8007F7D510E036E1D1E0400825
:1005400040006862FFF70CFE074604E0FFF708FE74
:10055000C01B022887D8686A8007F7D42078042750
:100560004007002861DA00200190E869C00008D443
:10057000E969B8060143E961E96901400120009198
:1005800001908D480168C90511D401688215114395
:100590000160FFF7E5FD009005E0FFF7E1FD009940
:1005A000401A642897D884480068C005F5D5A0682B
:1005B00001280AD0002801D0052811D0286A400857
:1005C00040002862286AB84302E0286A01210843F3
:1005D0002862A068002812D0FFF7C2FD00900AE050
:1005E000286A38432862F0E7FFF7BAFD0099411AFC
:1005F0007248814275D8286A8007F5D50DE0FFF76B
:10060000AFFD009006E0FFF7ABFD0099411A6B4883
:10061000814266D8286A8007F5D40198002804D062
:10062000E969012000078143E9612078C00635D5DA
:10063000606901280CD0401D686B24D03843686382
:10064000686B400840006863FFF78AFD074622E0B8
:10065000686B38436863686B012108436863FFF780
:100660007FFD074604E0FFF77BFDC01B022838D85A
:10067000686B8007F7D5686BF8218843A169C900CA
:10068000084368630AE0B8436863F4E7FFF768FD6E
:10069000C01B022825D8686B8007F7D42078800615
:1006A00037D568680007800F032813D068680007F3
:1006B000800F022804D16868C003800F032809D086
:1006C000206A0028686B16D030436863FFF748FD46
:1006D00006460CE0686BC0031BD5206A012864D174
:1006E00017E05BE0FFF73CFD801B022856D8686BE3
:1006F000C003F7D50DE0B0436863FFF731FD064650
:1007000004E0FFF72DFD801B022847D8686BC0036B
:10071000F7D4606A002846D069680907890F022962
:1007200043D0012636060228286805D0B043286049
:10073000FFF716FD044633E0B0432860FFF710FDD5
:10074000074604E0FFF70CFDC01B022826D82868E6
:100750008001F7D4E86A216B000900010843E862D0
:10076000A16AE06A084369687B22D2039143084387
:100770006860286830432860FFF7F2FC044604E014
:10078000FFF7EEFC001B022808D828688001F7D587
:1007900009E0FFF7E5FC001B022801D90320FEBD9C
:1007A00028688001F5D40020FEBD0120FEBD0000B8
:1007B000000001000010024000700040881300009B
:1007C000042204490428086902D090430861704754
:1007D0001043FBE700E000E070470000094910B556
:1007E000401E884201D9012010BD074C60610321E1
:1007F000081F00F011F80020A061072020610020F0
:1008000010BD0000FFFFFF0000E000E010B5FFF7A3
:10081000E3FF10BDFEE770478307FF22DB0E9A401F
:100820008907090E994000280BDA0007000F0838E5
:10083000830808489B001818C36993430B43C3619E
:100840007047830804489B001B18186890430843AE
:100850001860704700ED00E000E400E0704770476A
:1008600010B51A490878401CC0B20870642828D313
:100870004A781748002A42690FD0520601D5154A16
:100880001CE04269920501D5134A17E0426912063D
:1008900001D5124A12E0124A10E0520601D5114A5F
:1008A0000CE04269920502D50B4A403A06E04269E3
:1008B000120601D50C4A01E0094A4032826100204B
:1008C0000870FFF753FCFFF7A1FF10BD00000020E8
:1008D0000008004800024000800000020001800083
:1008E00040000001000140000002800010B592B0FD
:1008F000022000900120039000241020099404900D
:100900006846FFF771FD002800D0FEE707200D9034
:100910000E940F94002110940DA8FFF771FC00288D
:1009200000D0FEE70420FFF74BFF12B010BD00001F
:10093000124801680122114301604168104A1140C8
:10094000416001680F4A1140016001680122920470
:100950009143016041683F22120491434160C16AA2
:1009600009090901C162016B074A11400163416B2A
:10097000490849004163002181607047001002402E
:100980000CB8FF08FFFFF6FE2CFEFCFF02E008C8D3
:10099000121F08C1002AFAD170477047002001E0F9
:1009A00001C1121F002AFBD170470000FFF7E6FBD0
:1009B000FFF79CFF2948406901235B04274918433E
:1009C000486149699800254A0143516191690122B2
:1009D000224C1143A16161690143616120480168B2
:1009E000FF2424035525A1432D03294301604668B4
:1009F0000F2189018E4346608668AE438660C568D4
:100A0000A543C5608162154949691943134B596172
:100A10000921C9060B689B089B000B60CB689343B8
:100A2000CB60CB6802242343CB600E498B688B607C
:100A30000D490B6813430B608B6813438B600B4AA3
:100A40001168FF231B029943A30319431160084A4D
:100A5000202111600901816130BFFDE700100240D3
:100A600000080048000001400004014004E400E0E8
:100A700000E100E0000000000000000001020304AB
:100A800006070809A40A0008000000200C00000066
:100A90008C090008B00A00080C00002004040000C3
:100AA0009C0900080000000000127A00000000000D
:04000005080000C12E
:00000001FF
